:4000000000400020D17F0000AD590000AD59000010B563491220086302F0F8FD302002F03BFE1D215F480902C16060495E4A0A607F22520202605C4AD21E0A6000224260AD
:40004000594B9B1E0B6011239B024361564B9B1C0B6011235B020361534B5B1C0B6082609A1E0A600D2252038261981C08605049202088624F49432088604E48402140386F
:400080004161412101614521C16044218160422141604621016048490D2002F0D1FC0D2002F0A4FC464C4548E060800302F060FD0120C004206120690003FCD401200004ED
:4000C000206110BD10B572B699203E4908603F493D48086077203E49400208603E493D4808603E49BB2008603D49992008603D48472101603C498160FA21C1603B48DE2189
:4001000001603B49816021214901C160022181613849FD200860374A3749916090613748F32101601B22D201826081613448D321016034498160DF2181613348E6210160A2
:4001400032498160022181613148362101603122826081612F480324046032218160FFF757FF2D4911200860C2072C48026004632A482B4980300160816028490C20C031D9
:40018000086028480260294927480860274940310860274920200860012008F0B7FA10BD000010400003014043FF0080000001400000034040010140B13000000000010F77
:4001C0000002224000010240FFFF7F6000020240000302400000EEEE000402400005024000060240000004404902C4000001044071A44400000204408E6D000000030440C8
:400200000004044000E0D80000050440710C6B000006044000070440C0022940000030400140040000003A404000400000033A40000E3F400348854600F040FB0048004744
:400240001B09000000400020801C800803D0401C801EFCD100BF7047EFF3108072B6704780F31088704730B50B46014600202022012409E00D46D5409D4205D31D4695406F
:40028000491B2546954040191546521E002DF1DC30BD70B500242546002801DA01244042002901DA01254942FFF7DDFFAC4200D04042002C00D0494270BDF0B51FB40646F2
:4002C000002082B005464024019100901BE0019922460F46304600F03FFA049A059B801A994110D310461946224600F025FA361A8F410197224601200021009F00F01CFA22
:4003000038184D4100902046641E0028DFDC019B00982946324607B0F0BD03460B439B0703D009E008C9121F08C0042AFAD203E00B780370401C491C521EF9D27047D2B23C
:4003400001E00270401C491EFBD270470022F6E710B513460A4604461946FFF7F0FF204610BD421C0178401C0029FBD1801A704730B504460020034600E05B1C934203D2A3
:40038000E05CCD5C401BF8D030BD30B505460020034600E05B1C934205D2EC5CC85C201A01D1002CF6D130BD024670B54A40D30FDB0740002DD04A002AD0010E140E000265
:4003C00012020919400A520A8418E50104465443000A120A2E045043A4194219200CC543AA18120C0125AD03521C521912047F39240400D0521C104301D44000491EC2B281
:400400000C06C0092018401C4008802A02D003E0002070BD40084000002900DA0020184370BD70B502464A40D50F40004A00ED0740085208002814D0002A12D0C40DD30D62
:4004400041020120C0055202490A520AE41A091812187D34914201D3641C00E04900002C01DA002070BD0023914201D3891A0343400849000028F7D100290AD0914202D1D5
:400480000121C90705E0914201D2012101E00121C943E005C018401900F06FF970BD0000F0B51FB488B00B990998002448400999C00F490049080991C0070B990090490069
:4004C00049080B9109990898A64608431CD00B990A98084318D0099801244000420D4800410D099824050003000B204309900B980003000B20430B9050181C49401800227C
:4005000001901446104605E0002001460DB0F0BD032801DA034600E003239C46C11A0AAE0AE05F0008ADED5B4F00F75B7D430027AA187C41491C5B1E6145F2DD410004AB6A
:400540005A522104120C0A43240C401C0828DFDB019802900099704601910090059B049A0799069800F057F9D0E700000DFCFFFFF0B50C465C4085B0E40FE40703944C002A
:400580000026640859009446490802460296224321D062460A431ED06200570D4A000E032303550D012402462C492405781B1B0B360B401823432643614600901C46501A34
:4005C000B44103D30098401C009002E0921800985B41002803DA0020014605B0F0BD0020012109050746864611E064461D46141BB54106D36546521BB341744607430C435A
:40060000A646CD0740084908284392185B4105460D43EAD11046184313D06046194650407140084306D06046101AB34106D20122002306E000220123DB0702E00122D24355
:400640005310009874460105381C6141029C039D0019694100F0D2F8BFE70000FD030000C217C10F504010B54018CA079623002100F08BF810BD10B500229623114600F040
:4006800084F810BD0EB505490291002100910A460B46019100F0BFF803B000BD33040000C20F410040020123400ADB05D207090EC0187F2901DA00207047962903DC9623FF
:4006C000591AC84001E096398840002AF4D040427047410040020122400AD205090E80187F2901DA00207047962903DC9622511AC840704796398840704700004A000903EC
:400700000123090B1B051943094B10B5520D9A4201DA002010BD064B34339A4203DC9A1A00F01AF810BD03495118884010BD0000FF030000CDFBFFFF10B5202A04DB0146AC
:40074000203A9140002010BD914020239C1A0346E3401943904010BD10B5202A04DB0846203AD040002110BD0B46D340D0402024A21A91400843194610BD002904DA401C7F
:40078000490001D140084000704770B40024050C05D11024000402D1002921D01124050E01D100020834050F01D10001241D850F01D18000A41C002801DB4000641C002978
:4007C00008D020252E1B0D46F540A14000D001212943084301061B1B000ADB1D02D5002070BC7047DB05181880180029F8DA401C4900F5D170BC40084000704710B5002BFF
:4008000008DA0024401C614192185B411A4301D14008400010BDF0B51FB482B005460C0003D0084609F0B2FB02E009F0AFFB20300246009021462846FFF77EFF049B059AEF
:4008400004460F4618431143084314D0184610431BD0009840210A1A18460599FFF77CFF05460E46009A05990498FFF765FF084305D0012004E02046394607B0F0BD00207A
:40088000C11705430E432C43374300990E986305401A7905E40A00220C43FD0A0A3002D500200146E9E70105101969410C9C0D9D00196941FFF7A2FFDFE70000064C0125EE
:4008C000064E05E0E36807CC2B430C3C98471034B442F7D3FFF7B2FCF8D2000018D3000030B58C180278401C13071B0F01D10378401C120906D10278401C03E005780D70BE
:40090000401C491C5B1EF9D101E00B70491C521EFBD1A142E6D3002030BD09F079FC09F0B5FDFEE710B50D4B42009A5A0C4B891A0AB281005858002A03DDC40F2018401070
:4009400003E0C40F201840104042064C595862438018FFF79EFC00B210BD0000160200200C0600201027000010B5084A106800280BDB074881680029FCDB10680121C90788
:40098000084310600A2002F013F810BD00003A4000023A40032805D2044980004018006880B200E0002000B27047000080013A40014908690861704700023A40F8B5032145
:4009C000192002F01DF83149192002F039F830480721016201682F4A12682F4BD20F12051A43114301602D4941602D4981610021C1612C4A026142612B4EB162B163012708
:400A0000B761016B12079143394301630024274AA5005159372000020140101F005D08431B498031691808605159C80705D0B26A3846A04080B20243B262880705D5B26B39
:400A40003846A04080B20243B263880502D50120800201E001200003C90501D4002102E0C10F09184910124A6300D152114948434B21090140184900FFF70BFC01B20E48AC
:400A80004151641C032CC2D3F8BD0000B109000000003A4080033A40402E001391000A800000FF070200020000023A40A0CA000016020020102700000C06002001460020E6
:400AC0008A0706D0054A1069C007C00F02D00121116170478B07F6D47047000000023A4040070249400F08627047000000003A4010B5054C2078002803D1FFF75FFF0120EA
:400B00002070FFF731FF10BD1402002002480168490049080160704700003A4010B50124064A21468140937AC8B2012B04D09472FFF7D6FF012010BD002010BD6001002007
:400B400070B50B49002406468C720A4901204862094D0220FFF7B2FF002803D1641CA4B2AC42F6D33046FFF715FF80B270BD00006001002000003A4010270000F8B5554C69
:400B800020792546544F4C3D0026002806D0012817D0022829D0032827D11CE009F05AF8002822D1642009F06DF84C4803F0BEFC0120207120214A48FFF7C8FBAE73EE7346
:400BC00013E009F047F800280FD1342009F05AF80220207109E009F03DF8002805D138460C3007C8E86429656A6508F007FC007800282AD008F002FC4078030009F0F5F9FC
:400C00000C07070707070707070707262C25A87B0023C006000E33A2022103F0D2FD08F0EDFB4178E87B2E4A00018218A87B80311154401CC0B2A8730C2806D92D2009F08D
:400C400021F8294803F072FC2671F8BD0C3707CFE86429656A65F8BDE87B00280FD02049102210310F46881AFFF78FFB002810D01D4803F05BFCA52009F004F814E0602024
:400C800009F000F8194803F051FC0120E87302201DE0384606F0B4FC002807D02E2008F0F1FF114803F042FC267111E05D2008F0E9FF0F4803F03AFC04F0C2FB0C22394661
:400CC0001E30FFF72AFB384609F07EF803202071AE73F8BD2401002090C000007CC40000660300202A00000098C3000064C40000BCC30000F0B5614C89B0207925460027D4
:400D00000226293D030009F070F90604111A214439442C2008F0B6FF594803F007FC01202071564829380770477032E008F092FF00282ED1342008F0A5FF04201CE008F070
:400D400089FF002825D16780277122E005A801F08DFD00281DD1032008F094FF28780A228038697850438038081880210843C0B205A908F0C9FF052020710AE008F06AFFC3
:400D8000002806D1332008F07DFF3E4803F0CEFB267108F033FB0078002836D008F02EFB4078030009F021F90C07070707070707070707333B312079012802D0207904288F
:400DC00023D10420207108F019FB42782EA1684609F0C8F82878000609D408F00FFB407800238030287002216A4638200BE0687800060AD408F002FB407800238030687074
:400E00006A460221402003F0DCFC09B0F0BD1F491A480EC94C38C16402654365F5E72079012802D020790428EFD12878010602D569780A0604D42D2008F024FF144810E005
:400E40000A22803850438038081880210843C0B205A906F0CFFE002807D0712008F012FF0C4803F063FB2671CFE76C2008F00AFF094803F05BFB03202071C6E724010020FC
:400E80008CC30000E0C30000256400009CC0000098C3000058C4000070C40000F0B5864C87B020792646022700252B3E030009F09CF8040319232A772C2008F0E3FE7F48E6
:400EC00003F034FB012020717B482B380570457004F018FA458004F015FA457004F012FA05705DE008F0B6FE002859D1342008F0C9FE0420207153E008F0ACFE00284FD1B6
:400F0000658025714CE004F09FF804F0FBF94079002845D004F0F6F94079801E030009F064F80C073C0C3C3C1D3A3C3C3C3C333C032008F0A7FE62482AE0312008F0A2FE29
:400F400004F0E0F942785FA1684609F00BF800236A460221382003F034FC1EE0332008F091FE594803F0E2FA30780A214006400E4843717880224906490E4018C1B2104346
:400F8000C0B208F0F3FE08E0322008F07BFE4F4803F0CCFA01E02771658004F0B3F9457108F02CFA0078002834D008F027FA4078030009F01AF80C0707070707070707073B
:400FC0000731412F2079012802D02079042821D108F014FA42783BA1684608F0C3FF3078000609D408F00AFA407800238030307002216A4638200BE0707800060AD408F06E
:40100000FDF940780023803070706A460221402003F0D7FB07B0F0BD04F0F4F8142001F0B3FC002003F086FF294923480EC94C38C16402654365EDE72079012802D020793A
:401040000428E7D13078000602D57078000604D42D2008F017FE1F4817E004F053F931780A224906490E514372785206520E8918418080200143C8B205A906F0DDFD002832
:4010800007D05C2008F0FEFD134803F04FFA2771C0E7612008F0F6FD04F034F9057004F031F945700D4803F041FA0320207104F029F94571AEE70000240100208CC3000013
:4010C000C8C3000025640000E0C30000D4C300009CC0000098C3000028C4000070C40000F0B5774C89B0207926464C3E002804D001281CD002281AD113E02C2008F0C2FD7F
:40110000704803F013FA012020716D4800254C382021C5770D546C48FFF718F9B571F57105E008F097FD002801D16080207108F065F90078002853D008F060F94078604F15
:4011400002252D3F030008F050FF0C070707070707070707074D534B207901281ED0207903283DD1B0790023C006000E57A2022103F027FB08F042F94178F079524A000190
:401180008218B07980311154401CC0B2B0710C2826D92D2008F076FD4D4858E008F02EF942784CA1684608F0DDFE3878000609D408F024F9407800238030387002216A46BA
:4011C00038200BE0787800060AD408F017F940780023803078706A460221402003F0F1FA09B0F0BD3C4807C8F06431657265F7E72079012812D020790328F1D1F079012838
:4012000032D0602008F03EFD344803F08FF9032020710120F0710020B071E1E738780106B7D579780A06B4D54206B2D10A22803850438038081880210843C1B205A806F0DA
:401240002BFD002807D05B2008F01CFD244803F06DF92571C4E72B2008F014FD214803F065F903202071BBE7174910221031881AFFF78BF8002806D0154803F057F9A52000
:4012800008F000FD19E038780A228038797850438038081880210843C0B20B4908F02EFE002804D0332008F0EDFC0F4803E05B2008F0E8FC0D4803F039F92571ABE7000017
:4012C000240100208CC30000460300202A00000098C30000256400009CC0000064C400001CC4000080C30000E0C30000D4C3000010B506F033F80020FFF710FC0B4C00287B
:4013000007D00020FFF71CFC01B20020FFF70AFB608006F031F8054A00206188121D4300401CC0B2D1520628F9D310BDB4000020F8B53E4E3078401CC0B23070082853D9DA
:401340000020307006F00AF80020FFF7E7FB002807D00020FFF7F4FB01B20020FFF7E2FA708006F009F831487588001D8488AC42204617D9FFF786F90F462D4A2D4B009001
:40138000FFF78EF8FFF7BAF980B2611B884221DA3946274A284B0098FFF782F8FFF7AEF9201A16E0FFF76EF90F46214A214B0090FFF776F8FFF7A2F980B2291B884209DA2C
:4013C00039461B4A1C4B0098FFF76AF8FFF796F9001970801549091D488808804C80728820188A80400870807088FFF744F91349FEF7DAFFFFF754F94B218901401A0028F8
:4014000001DC0020F8BDFFF72BF90D49FFF709F87F21C905884201DB6420F8BD0949FEF7C3FFFFF756F9C0B2F8BD0000B40000207B14AE47E17A943FE17A843F00004040AD
:40144000000096440000C84204498A680723DB039A43C00302438A607047000000050440044A1168DF23C0071940800E084310607047000000050440F0B58DB00E460446C0
:401480000125ED43142101A8FEF760FF142106A8FEF75CFF36A0006808210B90084601F068FA00210D2005F0FBFE80210E2001F060FA022C00DD02240BA8005D694608710F
:4014C000202048710CA8009006AB022201A90C2009F0F2F8002802D028460DB0F0BD6846007E06AD88283ED0042229463046FEF714FF0E278026384605F074FE3043C1B2F9
:40150000384605F0CDFE0821084601F032FA00210D2005F0C5FE80210E2001F02AFA0BA8005D6946087170204871002001AA295C1318401CC0B299700528F8D3072101A853
:40154000D21D09F087F80CA801AB0090092219460C2009F0B1F80028BFD16946097E8829BBD10120B9E703223046691CBFE700009395970070B50546062832D80024194E18
:4015800008E0022001F000FA07F05AFA6100641C7052E4B2AC42F4D370893189B2884018F1888918401871884018318840180621FEF759FE0B490A3908810020FFF750FFEC
:4015C0000620FFF741FF012007F04CF8062007F055F8062007F05EF8062007F073F8FFF787FA70BD8A02002070B50546FF200023312410E0EA5C50400022C60903D04006A7
:40160000000E604001E04006000E521CD2B2082AF3D35B1C9BB28B42ECD170BD70B5FEF71BFE144A11680F231B0299431160FEF717FEFEF711FE104C21680422914321604E
:40164000FEF70EFEFEF708FEA168FF25C135FF22A94381321143A160FEF702FE012001F0A7F9FEF7F9FDA168A943A160FEF7F8FD70BD00000004024000040440F3B5074614
:401680001C202D49784344182CA083B06668006800903178012088400499401E484300256421FEF7E0FD019025480770254800F041FB254F00203870093608E06A46314670
:4016C000019800F077FC05433878401C3870E07E39788842F2D868460078401C40083070002038701CE01848A16800780A225043164B0A181A60507A317888420AD3401A10
:401700000499C0B24843174664216330FEF7ABFD787201E0002050720B480178491C01700948E17E02789142DDD8074900200870284605B0F0BD0000C0C5000001000000BE
:40174000F601002035180000F80100200402002070B50446867E057EFEF77EFD0246206800680F21A94088430421A9400143606803680725B540AB4303602068016010460E
:40178000FEF76EFD70BD70B50446017E857E006802680F238B409A430260FEF75DFD0346606801680722AA4091430622AA400A4302601846FEF754FDA0680168637E012213
:4017C0009A409143016070BD10B50B4800781C2148430A4909580A4800781C2250430C18FF2008490730086300F0F0FD2046FFF7CAFF00F039FD10BDF6010020C0C500003F
:40180000F8010020C000294010B5FF2006490730086300F0DBFD054801780548007800F0ABFC00F021FD10BDC0002940F8010020F601002010B5FF2006490730086300F0AE
:40184000C5FD05480189491C0181C168034A1140C16010BDC0002940A00400207FFFFEFF70B5154C20781C21144D48434019144E40680021317021781C22514349198A68A0
:4018800031780A23594351180E4A116000F0E6FD20781C2148434019007D400701D50A4800E00A4800F046FA3178207800F036FC00F00EF870BD0000F6010020C0C5000088
:4018C000F80100200402002009180000C917000010B50548C168054A1143C1600A2001F067F800F0E3FD10BDA00400208000010070B51C210F4E414389190F4C4D682070C8
:40190000012000F059FF00F065FC20781C2148430A49305808600A48C168C909C901C160C16822781143C160284600F035FB00F0D1FB70BDC0C50000F6010020080200209D
:40194000A0040020F8B50E4607461C201549784344186068144D00902E702878A1680A2250430818114908603846FFF7C1FF009800F074FD0E4831460460384600F0CEFB6E
:401980000C4800781C2148430649085829788900401809490860094901200870084800F0C9F9F8BDC0C50000F801002004020020FC010020F6010020000200200C020020BE
:4019C0003518000070B500252C46204600F006F82843641C05460D2CF7D370BD10B50D2801D3012010BD5521FFF748FE10BD0000F8B50020134D421E0646810049194E617E
:401A00000A61401CF9D0104C0D2717E0A07EEA1961681676012802D006280ED105E0206900280AD0CA79218B05E02069002804D0CA79218B4900FEF782FC1C347F1EE5D2F9
:401A4000F8BD0000A0040020C0C50000F0B50A8B8D6894464A680969012320E00646548897791E4005D0E41BEF88A74203D91C4602E0E419F8E70024A64202D00F787F1E4F
:401A80000F70A64202D00E78002E05D198432043002C0AD001240C705B00491C0A356446641EA446641CD9D1F0BDD479F3E7FEB505468668406800900027A87E3C460190E7
:401AC0000BE03146019A009800F0CAF807463146009800F065F8641C0A36288BA042F0D83846FEBD30B504460F488A7E0519287E012A02D0062A05D102E0FFF7A7FF01E0EC
:401B000000F014F8E106C90E01228A406109064B8900C91828760028486902D01043486130BD9043FBE70000A0040020F0B58D684B680A69098B49008C46012125E0EC8824
:401B4000164EA6465C88314201D1DC890A3506469F790E4004D0E41BA64503D90C4602E03C19F9E70024A64202D017787F1E1770A64202D01678002E05D188432043002C5C
:401B800009D0012414704900521C6446641EA446641CD4D1F0BDDC79F4E70000555555550A884B88D21A0023CB800079904200DACA80704770B5FF21134C6D311348FEF709
:401BC000C5FB124812490180FF2101314180114981800821C184022120300172B822A11A0A30FEF79AFB0C490D2309E00A8B886803E0257845720A30641C521EF9D21C3168
:401C00005B1EF3D270BD0000E8C70000A0040020E213000070170000C0C500009840FF23504301339A1A4A438018000A7047704770B50D460646012404E022462946304699
:401C400000F003F8641EF8D270BD10B5CCB2811800230B715200845A101844800B7210BDF7B50746002082B00C46012500904BE069000E19605A7288904206D3801A0122F5
:401C80009446002263191A7213E0101A002294467A7982420DD26019017A3A7A914205D32A4620460499FFF7D0FF2DE0491C01722AE03A79824205D27A79824224D960464F
:401CC000002821D10498C0B2062870880BD00302621901921079615A18438C46012201460823604609E0621901921279000202439446605A012208236146FFF78FFF010223
:401D0000090C7180019A10716D1EB1D2009805B0F0BD000010B50446FEF79EFA04490A69C0239A43A3011A430A61FEF799FA10BD00E400E010B50124054924040C600549BE
:401D400008600120FFF7E6FF01488038046010BD80E100E08000002010B5074C2078002805D1FFF727FF00F069FD01202070FFF73FFE00F037FC10BDE601002010B50D24FB
:401D800002E0204600F014F8641EFAD210BD00001C225043054A00B582180A23906859430818917EFFF744FF00BD0000C0C5000030B505461C20064968434018048B03E0BA
:401DC00021462846FFF7E4FF641EF9D230BD0000C0C5000000200121044B03E08A00D21852691043491EF9D270470000A00400200248C0688021084070470000A0040020FD
:401E000010B500220D2810D21C23094C43431B191C8B8C4209D99A7E062A00D14900054A1018027E012088400240104610BD0000C0C50000A0040020F8B500200E4D0F4F89
:401E4000044601260090E106C90E3046884061098900C9190969084207D02846FFF727FE009029462046FFF73DFE641C1C350D2CE9D30098F8BD0000C0C50000A004002082
:401E800070B504460D2801D3012518E0E106C90E0120884061090B4A890089180969084201D111250BE01C200749604346183046FFF7FDFD054631462046FFF713FE2846BD
:401EC00070BD0000A0040020C0C5000010B509480024C068C00301D5112405E006480078012803D00024E443204610BDFFF7B8FCFAE70000A0040020F501002010B50D4898
:401F0000C068000601D5112010BD0024204600F015F8002803D0641C0D2CF7D310BD06480C2C01D2012100E000218170FFF7CEFF10BD0000A0040020F501002010B50C4ADB
:401F4000D168C90301D5112410E00D280DD2C306DB0E0121994043099B009A181269114203D00024FFF7C4FC00E00124204610BDA004002070470203131A01228A40521E4A
:401F8000934201D8062070470102081A904201D8052070470020704710B54389027B0188184600F04DF9024980B2486110BD000000032940F7B53E4A06468025107882B0AA
:401FC0000C4600271C2148433A494018406801903948277001781078FFF7B4FC37480168374A4906490E1143016041684906490E2A0411434160B74202D22078A8432070B7
:4020000020786D0828432070019800F027FAFFF75FFCE12000022B4900E0401ECA68120601D50028F9D12848002D00680788E2D1214801781E48007800F09EF823490020BD
:4020400008701E49C031886A214A104388621B481B490160C1214904416000200090019801250078642185400A206D1E6843FEF7FAF8401C3118A94200D80D46864201D230
:40208000009801E0301A0090874201D3AF4201D9062000E0002004990A7821788A4201D2049A11700849227809684A7205B0F0BDF6010020C0C50000F8010020C001294070
:4020C00000008301A0040020040200200C020020010000100E4800781C2148430D49401841684889097B0A04052901D0062902D101235B061A43052901D0062902D14008B7
:4021000000D10120401E02430348026070470000F6010020C0C500000002294070B51C22114C504322581C234B43D3180F4D00192B60007D400712D588000D491018086001
:40214000847800881C2148430A4940182860FFF7FFFA28681C302860641EF8D170BD1846FFF7F6FA70BD0000C0C500000802002000020020F8C7000070B51C22114C5043C1
:4021800022581C234B43D3180F4D00192B60007D400712D588000D4910180860847800881C2148430A4940182860FFF7ECFA28681C302860641EF8D170BD1846FFF7E3FA6C
:4021C00070BD0000C0C500000802002000020020F8C7000070B5104E307801281BD10F480F4D0068007D400710D50E481C2100688478008848430C4940182860FFF7C3FA2C
:4022000028681C302860641EF8D102E02868FFF7BAFA0020307070BD0C020020FC0100200802002000020020F8C700001C214843024940184068408970470000C0C5000078
:402240000B460146012010B59840401E1446002901D0FEF708F8052C01D0062C00D14008002800D1012010BD70B51F4D28781C2148431E4A2978801840681C2359431C4CA8
:402280008918097E2378491E994216D92178491C217029781C23594389188A6821780A235943521813490A6000F0D8F821782878FFF734FF00F0FAF870BD002020700E48C3
:4022C000C168012212049143C1600C490978012907D0C16880229143C1600189491C018170BD00F09DF970BDF6010020C0C50000F801002004020020A0040020F7010020E8
:40230000F8B500F035F9FFF789F9032025498004486024488030816A234B19438162234900244C6344631F4A1021C0321160204D2C621C4980394C608460046044600C60E9
:402340001C4F3A680F263602B2430326760232433A6042691E143243426101220262826A1A4382621A114262134B8B60046142600C4E1248403E3060C12040047060104867
:40238000007A00F0A1F900F045F80E480E49406808430649C03908600F20286034630A202861F8BD0002294001000010C000294000032940000402404112000000008301B8
:4023C000C00400200C020020001000800C4800781C2148430B4940180B4940680969027801209040094A89B21278401E5300084A8142126801D2D1527047D0527047000044
:40240000F6010020C0C50000C000294098CA00000402002070B50C4D70206C6884430B486C60017A0A48FDF71EFF0A49884201D8202003E00849884203D8302004436C6037
:4024400070BD4020FAE700000C020020C0040020006CDC02001BB70000366E0170B50646FDF7FAFE0E4C024621680E4DC9092878C9013018407A084320601046FDF7F0FEF7
:40248000FDF7EAFE61682B78CA090749D2010968C918497A11436160FDF7E2FE70BD0000C001294098CA000004020020F8B5102000F092FA2949012008600026CE60294FE1
:4024C000274939637E630621B9603860234940310863FF2221490732C0390A638E63214C0320C0342060E1252D02284600E0401E0B6B5B0702D40028F9D101E0002801D154
:40250000082020601548C0380263102000F05AFA102000F06BFA3E603E637E63BE600F485021403001630D480121C16006600B49803108680122120610430860074802218B
:40254000C0388163084800E06D1E0168490701D0002DF9D105482060F8BD00008001294001010100800229400000294001030000FEB5002738461C2148431849019008580A
:40258000029001980025401800901DE00099097D490712D501994058A9004618002408E030881C21001948430D494018FFF7EBF8641CB078A042F3D805E01C20029968436F
:4025C0004018FFF7E0F86D1C00990448097EA942DCD87F1C0D2FCDD3FEBD0000C0C50000F8C7000010B5002400F00AF800F04CF8FFF786FE012000F0DFF8204610BD000007
:4026000070B5064D00241C20604340194168204600F070F8641C0D2CF5D370BDC0C5000070B5174D174C6878401C68706878FFF785FC00280BD069780C2910D0E168090288
:40264000090AE160E16800060143E160EBE768780C2801D10020A870FFF738FC70BD2189491C2181E16880229143E160E1680902090AE160E16800060143E16070BD000091
:40268000F5010020A0040020F0B50E48002107270626026813680469A343136044682368827E3D469540AB43354695401D432560826813684469A34313601C30491C182910
:4026C000E7D3F0BDF8C700000749064A0A600002064AFF380138106008680028FCDB04480860704740000040000001400003014040FF0080F8B50D46FFF798FD0646298852
:402700000022FFF79DFD00240746A02E27D328498F4204D33846FDF7A6FD002918D025498F4204D33846FDF79EFD002912D07F2F05D37F213846FDF796FD00290CD03F2FA3
:402740000DD33F213846FDF78EFD002906D006E0042404E0032402E0022400E00124002C04D129887000FFF706FC04463146012C10D0022C0ED0032C0CD0042C0AD00020CE
:40278000002C10D000280ED064225043FDF76BFD002103E01020F7E74000491C0A28FBD302D9491E00E00021080120432873F8BDFF030000FF01000070B5114D044628786D
:4027C000A04218D001280CD10E4908680F221202904308600C49886A400840008862FFF7F9FC012C08D0022C05D0042C03D0032C01D00020287070BDFFF782FD0120F9E7B8
:40280000F5010020000402408002294010B5FFF7A3FA04000BD1FFF7D5F8040007D1FFF76DFB040003D1FFF7E3FA0028FBD1FFF7FEF9FFF7A3FA204610BD0000024800215F
:40284000C180024801607047A0040020500200207047000010B50620FEF78CFE04F0B4FC01490020087110BD80020020F0B51F4C074660880026401C80B285B0F643608021
:4028800014282FD30025658003A9522003F068FE002825D102A9384606F0BEFF14A003C8019100903B466A460221602004F063FC002815D1042239460F48FDF759FD00281B
:4028C00008D02078401CC0B22070022808D92570002605E0042239460748FDF71EFD257004F038FC304605B0F0BD0000BE000020FFFFFFFFFFFF000074020020004870475A
:4029000080020020FFB5C1B04A9F0446B8693968201A4518802116466018FEF765FEE16F884206D1A119449A4298FDF7F6FC00241CE080216818FEF757FEE96F884214D19C
:40294000FF22013229466846FDF7E7FC3A466946204607F0C7FA040008D1B00069464118449A4298FDF7D9FC00E00224204645B0F0BD70B50D46044604F034FCA843C1B25A
:40298000204604F08DFC70BD70B501260446074DF60303E0E868FDF757FCA41BB442F9D8A8686043FDF750FC70BD00009C01002010B5034909784843FDF746FC10BD000027
:4029C0009C010020C106C90E01208840014908607047000080E200E0C106C90E01208840014908607047000080E100E0C106C90E01208840014908607047000000E100E006
:402A000070B506468007C40E0D46A41DFDF724FC0146B20806489200101802680323A3409A43A540154305600846FDF719FC70BD00E400E001235B078200985899507047C9
:402A40000122520780008218106C1164704700000748416B0F2212029143FF31013141638169044A1140044A891881617047000000000340F0F0FFFF080900000548416BC2
:402A80000F221202914341638169034A1140816170470000000003400F0F000002480168420391430160704700002240F8B500F08DF8002843D0FDF7CFFB054620488068DB
:402AC0004007C10E1F48806A1F4C0007800F1831C140A0681D4A012310401D4A9B034A43D218D20B521E5205520D02430520800402431A2903D2FF20800502430CE0154845
:402B00000818437B14484018203880791818FF2800D9FF2080050243A260104E306B0090302000F06DF92068B102084320601420FFF72AFF009830632846FDF791FBF8BD41
:402B4000000F0340000003400000224000F800C040420F0040F3FF0FA8C5000000001040024800684000C00F704700000000224070B5154C0546E068800F8007A84215D03F
:402B80006069800880006061E068800F18D0FF200D30FFF70DFFFDF75FFBE168AA0F8900890892071143E160FDF75AFB60698108E0688900800F05D001200143616170BDAA
:402BC0007C20E6E70220F8E70002224001480068C00F7047000022400A48016849084900016001680222914301600748016830229143103101600168C908C900491C0160AD
:402C00007047000000002240000F224010B5FFF7E3FF0348016882031143016010BD00000000224070B505460024FDF715FB184E0346062D01D0022D1ED1B06A80088000C5
:402C4000B06214490868420852006807C00F10430860086ACA031043086202200A6A02430A620A6A82430A62641CE4B2052CF5D3086A400040080862B06A81088900A807AA
:402C8000800F0843B0621846FDF7EAFA70BD00000000034000002F40F8B50026044618280BD01C2C09D0202C07D0242C05D0282C03D02C2C01D0302C43D1FDF7CDFA0746AA
:402CC000FFF74EFF002802D00126FFF7E7FE1D4DA868C008C000A8601B482018407BE8602869C008C0002861A8691749C009C00120396118097D4906490E0843A8613220AC
:402D0000FDF7A2FA182C15D90120E40640072018A968400FC908C9000843A8603220FDF793FA012080072018A968400FC908C9000843A860002E01D0FFF7B8FE3846FDF7DD
:402D40008FFAF8BD000F034040F3FF0F0CB50B4800900B4801900B48694681600A49416000BF8168090F0F2903D08168090F0A2902D08068C0B20CBD00200CBDB6E90000A7
:402D80004406002000001040160000800A48094981600A49416000BF8168090F0F2903D08168090F0A2902D08068C0B27047002070470000B6E8000000001040150000800E
:402DC0000CB50B4800900B4801900B48694681600A49416000BF8168090F0F2903D08168090F0A2902D08068C0B20CBD00200CBDB6EA0000440600200000104017000080A6
:402E000010B50446FDF728FA01460C48102C03D8026B920892000CE0202C04D8026B92089200521C05E0302C04D8026B92089200921C02630846FDF713FA10BD00001040D2
:402E4000F0B50546C5B000200090019001204002854254D2002952D0421004A8FDF75DFA29480290FF200390284C02AEA6602848606000BFA068000F0F2803D0A068000FC2
:402E80000A2805D0A068C1B20091002902D038E00021F9E7FDF7E0F90746FFF757FF0190002801D0009802E0FFF770FF0090002815D1184802900298290408430290A660E2
:402EC0001348401C606000BFA068000F0F2803D0A068000F0A2806D0A068C0B200900198002802D007E00020F8E7FFF769FF0190002800D000903846FDF7B2F901E0042040
:402F00000090009845B0F0BDB6D700000000104004000080B6D8000038B500200090FDF79BF904460E4800680E49C00705D001200090886A8008800088620B48408A48605E
:402F40000A48016904221143016130BF0098002802D00620FFF766FE2046FDF781F938BD00002F400000034040F2FF0F00ED00E010B5FDF771F904490A6904239A430A61DE
:402F800030BFFDF76DF910BD00ED00E000B500F009F80348016901221143016100BD000000E000E002480169022211430161704700E000E002480069C003C00F704700007C
:402FC00000E000E010B500200C4904468200401C8C500528FAD30A490F20FFF72BFD012000F02EF807487D21C9004068FDF73BF901020548090A4161846110BD8004002021
:403000000D3000009C01002000E000E070B5FFF7D1FF012809D1054D0024A0002858002800D08047641C052CF7D370BD80040020024B820098589950704700008004002044
:40304000044904220128086902D09043086170471043FBE700E000E000020249000A48617047000000E000E010B5054C2069002803D1FFF7A7FF01202061FFF787FF10BDF0
:403080009C01002010B50446FDF7E6F806490C4006490A69044BDB431A4022430A610969FDF7DEF810BD00000404040000022240F8B51F4E30691F4C1F4D400712D5606885
:4030C00040070CD521680420626801408A4362602168814321602868002800D080470420FFF7D0FF3069400512D56068134F40050BD5216860683940884360602068B8436F
:4031000020606868002800D080473846FFF7BAFF306940030AD56068400303D5A868002800D0804701208004FFF7ACFFF8BD000000022240B40100209404002000040000F6
:4031400002460020032A03D2024B92009858995070470000940400200248416801221143416070474000034002490148886370476588EDAC0000034001490020886370476E
:40318000000003400148006880B2704740000340034980B20A68120C120402430A607047400003400248C16801221143C160704740000340F8B501250C46002948D00028CF
:4031C00046D0C368002B43D042680A2A40D8016800293DD00325CF094E0600D00126BE1956433202067A761C7243D21801235B049A4200D80025002D2AD1E160416821612B
:40320000017A2175417A6175C168A1610168CA09490600D00121511861604268C0685143090208182060204608302146064601F024FDA068006800280AD1207D002807D097
:40324000204601F0E4FC05462146304601F015FD2846F8BDFFB58FB005460027012610981C4607970390002A7BD0A8180590E168884276D810980028F6D001950692A0680B
:403280000B900168049100210D910599EA09491EC909891A491C0A91A1690891421A60680090010202911046FCF7DDFF02994843089940180C9000200AE0019AC101914242
:4032C00005D87F31914202D30746079003E0401C00998142F1D80C990B98401A000A0890206901280DD90A990798089A40180799401E914201D8904201D9012000E00020C2
:403300000D900020099041E00C98390208180199099B4906490E0A460A9E80325B1CB34202D28023591A00E0069902910D9900290CD008998F4209D961680B02C01AA36966
:40334000834203D9C91B20680902401A217D002908D00094029B0399FFF7D4FA060060D106E05EE08118029A0398FCF7D6FF002602990198401801900698401A069003984C
:40338000401803900998401C7F1C09900A998842BAD3002E45D10498002842D060680499884200D90846401E081A36E0214602F0AAFA07002FD0B96878680918A84203D906
:4033C000059A824202D826E08D4224D2A84201D9002200E02A1AA84201D9431B00E000239C46A84200D82846059B0C328B4200D819460B1A1098217D6044002907D001464C
:4034000038460094FFF77EFA06000AD103E0B9181A46FCF782FF0998401C099004998842C4D9304613B0F0BDFFB5CBB0002606960796986802904D9801251C4604910028D9
:403440007ED04D9A4B988018E268904278D80029F6D04D987021401EFCF705FF401C05900896002003902BA8099003988FE0002000900298234606680AAA02A9304602F0D6
:403480001CFAFF2101310BA8FCF760FF4B980C900598761C039A401E04990B96824202D14D980D900AE070200D904D9870384D904B9870304B900846703004900EA80D9AE1
:4034C000FCF72BFF0A99002904D0802280310998FCF723FF6068B04201D2371A38E0012737E0B74201D10BAD04E02146384602F00AFA0546A069029A6168101A000AFCF7AF
:40350000B2FE0B46002D09D0A96868680191009008AA07A906A802F09BF901E00098401C009000280AD106980BA90B180899079A6918121A18460C31FCF7EFFE207D00E027
:4035400029E0002804D080210998FEF74DF82A907F1CB742C5D922460BA9029806F0C2FC0546217D029800290AD0002D13D1A1692246401A216840180BA906F0B3FC05468C
:40358000002D08D10298A0600398401C03900599884200D26BE728464FB0F0BDF0B58A4E89B030793446083C25460027443D002804D001281AD0022846D13CE001F0DAF8DC
:4035C0008148083804F060FDE0780090A37822887EA101A806F0C6FC002301AA0121182001F0EFF801203071EF742DE07088401C80B270801E2827D97780A87C002807D03C
:40360000E87C0023C0002830C0B274A201210BE0E0780090A37822886CA101A806F0A2FC002301AA0121182001F0CBF8A87C01214840A87408E006F00DFB002804D1684806
:4036400007C8E86429656A6505F0D8FE0078002877D005F0D3FE40780A2873D2E87C030006F0C3FC08051A802E46805671800120E874278864213846FCF7F5FD08460A21A0
:40368000FCF7F1FD0A214843381A208005F0B6FE40780A2148430FE00320E874278864213846FCF7E0FD08460A21FCF7DCFD781A208005F0A3FE407821884018208052E0E2
:4036C00005F09CFE407802284DD2A7780A213846FCF7C9FD0A214843381AA07005F08EFE40780A214843A1784018A070042026E00620E874A7780A213846FCF7B4FD781A87
:40370000A07005F07BFE4078A1784018A0702AE005F074FE4078042825D2E7780A213846FCF7A1FD0A214843381AE07005F066FE40780A214843E1784018E0700720E8744A
:4037400011E035E01DE0EF74E7780A213846FCF78AFD781AE07005F051FE4078E1784018E07000E0EF74E0780090A378228817A101A806F0F7FB002301AA0121182001F030
:4037800020F805F03BFE40780A280CD00B280FD10D48083804F0BAFC00280BD02F2006F071FA10480AE00E4807C8E86429656A6509B0F0BD5D2006F065FA0B4800F0B6FEB9
:4037C00002203071F4E7000024010020252E34642D252E32642D252E326400005F000000A8C00000B0C30000BCC30000F7B50746002082B0164600900446174D019006F0AA
:403800007DFA002E0AD006204443601906226946D43004F0C9FB012005B0F0BD06206043401906226946D43004F0ACFB68464078B8420DD000A8042202300399FCF798FDD4
:40384000002805D0641CE4B2642CD8D30020E3E7002000900190D6E700B00100F8B5CB26194DB6000746002911D000206946487048800446A000401980190422694604F05C
:4038800093FB641CE4B2642CF4D30120F8BD0024A000401980190422694604F073FB68464078B8420AD10020694648704880A00040198019042204F077FBE6E7641CE4B2BF
:4038C000642CE5D30020F8BD00B00100F0B5AE4C89B0207901260025030006F086FB05041A566CC0C6000222A849002000F0C4FC26712570002020560101A448081880899A
:4039000006F0C0F9A0482B380572457221380573AAE0607800280CD006F09CF9002808D1994F4C3F387B002804D0012810D0022825D09AE0002020561F3080B206F0A2F930
:403940002078012801D03E738FE0022038738CE00020205601018D480818808B06F092F93D732178894A002000F0CFFC2078401C20702178854A012000F0C7FC75E03420E3
:4039800006F080F93D7365706FE006F063F90327002805D008A8FEF769FF002809D064E027717B48008906F06DF9794800F0BEFD5BE0277159E005F021FD0078002831D08D
:4039C00005F01CFD4078092823D805F017FD427870A1684606F0C6FA6B4F233F3878000609D405F00BFD407800238030387002216A4638200BE0787800060AD405F0FEFCE5
:403A000040780023803078706A460221402000F0D8FE05F0F3FC4078092803D805F0EEFC0D21417008A8FEF721FF00281DD1032006F028F9002208A91046FFF7D7FE002883
:403A400004D0554800F072FD362003E0534800F06DFD352006F016F90420207105E006F0F9F8002801D12571667005F0C7FC0078002827D005F0C2FC4078030006F0B5FAA5
:403A80000C35070D222222222224224B5B2265702079012816D1022013E065702079012810D10122002108465EE03B4800F03EFD362003E0394800F039FD352006F0E2F86B
:403AC0000420207109B0F0BD20790128FAD1657021782E4A002000F018FC2078401E40B22070002811DA26700FE020790128E9D165702178254A002000F007FC2078401CA4
:403B000040B22070012800DD257021781F4A012000F0FBFBD6E7207902280AD02079032807D01F4918480EC94C38C16402654365C8E72571C6E765702079012819D0207908
:403B40000328BFD1104923390878002815D04978002912D00A22803850438038081880210843C0B2002208A9FFF740FE0028A1D09BE72078002894D18DE72D2006F082F857
:403B8000084800F0D3FC9BE724010020E8C200008CC3000025640000F8C30000ECC300009CC0000098C30000F0B5D04E89B03079354601274C3D0024030006F016FA060484
:403BC000195361D5DCFE0222C949002000F054FB37713470002030560101C5480818808906F050F8C148293804714471EC72C0E0707800280AD006F02DF8002806D1E87A54
:403C0000002804D0012810D0022825D0D5E0002030561F3080B206F035F83078012801D0EF72CAE00220E872C7E0002030560101AF480818808B06F025F8EC723178AC4AB7
:403C4000002000F062FB3078401C30703178A84A012000F05AFBB0E0342006F013F8EC727470AAE005F0F6FF0028CFD103203071A048008906F006F89E4800F057FC9CE001
:403C800005F0BCFB0078002837D005F0B7FB4078092829D805F0B2FB427897A1684606F061F992482538007800060BD405F0A6FB8E494078253980300870002302216A4659
:403CC00038200FE089482538407800060CD405F095FB4078854980302539487000236A460221402000F06DFD05F088FB4078092803D805F083FB0D21417001F003FB00793A
:403D000001280AD001F0FEFA007905280CD001F0F9FA00790C2823D04FE0032005F0B2FF01F0F0FA047148E001F0ECFA047101F0E9FA807880210843C0B20021FFF78EFD09
:403D4000002804D06D4800F0F1FB362003E06C4800F0ECFB352005F095FF042030712CE001F0D0FA0471F2E705F074FF002824D13471777021E0697AA87A01F0E3F801F066
:403D8000C1FA4079002818D001F0BCFA407908282AD0092802D00A280CD103E0574800F0C5FB07E004203071554800F0BFFB352005F068FF01F0A6FA44713079052801D020
:403DC00000F0F0FF05F01AFB0078002846D005F015FB4078030006F008F90C2C0D1341414141411B4143514104203071362005F049FFD3E77470307901282FD1022073E062
:403E000074703079012829D13E4800F08FFB61E03079012822D174703178354A002000F074FA3078401E40B23070002811DA37700FE03079012811D1747031782C4A00202A
:403E400000F063FA3078401C40B23070012800DD34703178264A012000F057FA09B0F0BD3079022808D03079032805D0264807C8E86429656A65F1E73471EFE70020707047
:403E80003079012823D030790328E7D1174C253C2078002821D0607800281ED001F032FA00270770174800F041FB6F7220780A2280386178504380380818C0B2A8720521B5
:403EC0003171802108430021FFF7C8FCC6E73078002893D06F72052006E02D2005F0D2FE0A4800F023FB04203071B7E724010020E8C200008CC3000025640000F8C3000036
:403F0000ECC3000018C500009CC0000098C30000F0B59A4C89B0207901260025030006F064F805041A56649CA20002229449002000F0A2F9267125700020205601019048DD
:403F40000818808905F09EFE8C482B38057145712138057286E0607800280CD005F07AFE002808D1854F4C3F387A002804D0012810D0022825D076E0002020561F3080B202
:403F800005F080FE2078012801D03E726BE00220387268E000202056010179480818808B05F070FE3D722178754A002000F0ADF92078401C20702178714A012000F0A5F9C2
:403FC00051E0342005F05EFE3D7265704BE005F041FE002847D1032020716A48008905F051FE684800F0A2FA3DE005F007FA0078002838D005F002FA4078092823D805F0D4
:40400000FDF9427860A1684605F0ACFF5B4F273F3878000609D405F0F1F9407800238030387002216A4638200BE0787800060AD405F0E4F940780023803078706A460221CA
:40404000402000F0BEFB05F0D9F9407809280AD805F0D4F90D21417005E005F0FBFD002801D12571667005F0C9F90078002811D005F0C4F940780427030005F0B6FF0C281E
:40408000070D0B0B0B0B0B170B3E4E0B65702079012852D009B0F0BD657020790128F9D10121002054E005F0EDFD65E020790128F0D165702178324A002000F026F92078AE
:4040C000401E40B22070002811DA26700FE020790128DFD165702178294A002000F015F92078401C40B22070012800DD25702178234A012000F009F9CCE7207902280AD05D
:404100002079032807D021491C480EC94C38C16402654365BEE72571BCE765702079012808D020790328B5D1144827380178802906D01BE020780028B2D102202071A9E7BC
:404140004078002812D0802180380843C0B2002100F024F8002804D00D4800F0E7F93620A1E70C4800F0E2F935209CE72D2005F089FD094800F0DAF927718BE72401002019
:40418000E8C200008CC30000256400009CC00000F8C30000ECC3000098C3000070B58AB00C46064614216846FCF7D0F8184D002C11D0002405F0A2FD122060434019122235
:4041C0006946203003F0F0FE641CE4B20A2CF1D301200AB070BD122060434019122205A9203003F0CFFE05F089FD6846407DB04208D112204443601912226946203003F09E
:40420000D3FEE5E7641CE4B20A2CE4D30020E0E700B00100F8B5FCF735FA0022124BFCF7A7F90022114BFCF73BF9FCF767FAC5B20F480090032378220121642000F06AFB53
:40424000002478260B4F0BE0301BC2B27620001BC0B203230121009700F05CFB641CE4B2AC42F1D3F8BD00000000594000002C4064C000008CC00000F7B516460C4600F0F3
:4042800079FA01F0DDF82030C07A002807D001F0D7F82030C07A01281CD1002532E0002516E02F010023E2592946184600F089FA0098A84203D138190123426802E0381914
:4042C000426800232946102000F0D6F96D1CEDB2B542E6D3FEBD2F010023E2592946184600F06FFA0098A84203D138190123826802E03819826800232946102000F061FA6D
:404300006D1CEDB2B542E6D3FEBD70B514460E46054601F095F82030C17A3001041900290AD001F08DF82030C07A01280ED1A268002D0CD001230BE06268002D01D001235C
:4043400000E000233146102000F096F970BD00233146102000F035FA70BD000070B504468AB0C078009015460E46A378228825A101A805F0F7FD002301AA1946184600F019
:4043800020FAA07900906379227922A101A805F0E9FD002301AA0121184600F012FA3046FFF738FF01F04CF82030C07A1D4C002806D001F045F82030C07A012807D00CE0C5
:4043C000002302211846226800F056F905E0002302211846626800F0F4F9134CE8002178002903D0C0B2002310A202E0C0B200230FA2032100F0E5F9207801214840207011
:404400000AB070BD252E34642D252E32642D252E32640000252E32643A252E32643A252E3264000080C30000300100205F00000020000000F0B58BB01F4615460C460646FE
:4044400000F0FEFF2030C07A0028207806D0012817D0022818D0032819D01EE0012804D0022804D0032804D017E01C4802E01C4800E01C483B4602682946002000F0FCF8BE
:404480000BE03B4618A204E03B4619A201E03B4619A22946002000F094F9607818A14206520E03A805F05EFD3B4603AA2946202000F087F9E07A627B217B6B4607C3A37AA1
:4044C000324613A103A805F04DFD6D1CE9B23B4603AA002000F075F90BB0F0BDF4C4000000C500000CC5000050494E200000000046502020000000004361726400000000C9
:404500003A252E32642020202020202020200000252E336420252E32642D252E326420252E32643A252E32642000000070B5044600F020F900F084FF2030C07A80250028A1
:4045400012D000F07DFF2030C07A01280BD16068FBF707FFC000281AC005000E00230121626800F02EF970BD2068FBF7FAFEC000281AC005000E00230121226800F07CF8FC
:4045800070BD70B50D460446002A01D000F0F2F800F056FF2030C07A8026002812D000F04FFF2030C07A01280BD16068FBF7D9FEC000301AC005000E00232946626800F031
:4045C00000F970BD2068FBF7CCFEC000301AC005000E00232946226800F04EF870BD0000FFB583B00D46203A03990020D4B27F2903D90021AD1CEDB203911E4E002B26D0F1
:404600006F4624012118715CC9433954401CC0B20828F7D32946039800F09AF90821684600F0AAF9002021188919097AC9433954401CC0B20828F6D36D1CE9B2039800F0B5
:4046400087F90821684600F097F907B0F0BD2946039800F07DF9200180190446082100F08BF96D1CE9B2039800F072F9204608300821E8E7DCA70000FFB589B0154600244F
:404680006A46148248000790401C394E06904CE06946087568784875888A04AB42BA0020222701467943715A914237D118800C98002807983ED0C1B2099822011018059093
:4046C000C0B200F045F900206F46398A22225143891909188978C9433954401CC0B21028F3D31021384600F047F90698C1B20598C0B200F02DF900206946098A2222514332
:4047000089190918897CC9433954401CC0B21028F2D31021684600F02FF903E0401C80B28C28BDD3641CE4B2AD1C28780028AFD10DB0F0BDC1B2099822011718F8B200F010
:4047400007F96846008A2221484380191021801C00F012F90698C1B2F8B200F0F9F86846008A22214843801910211230D3E70000CCAD000010B5A0B080216846FBF7E6FDB8
:4047800080216846FBF7E2FD00242046B030C0B2002100F00CF90021022000F008F90021102000F004F98021684600F0E5F8641CE4B2082CE9D30021202000F0F8F820B042
:4047C00010BDFFB581B017460E46054600240FE0C2B27006010E2846049BFFF701FF0835EDB2782D02D90025B61CF6B2641CE4B2385D0028ECD105B0F0BD000010B5012029
:4048000002F06CFD7D20C000FEF7D2F803F020FE3F480168FF22120391430160012003F04DFE002002F04EFD0021AE2000F0BFF80021202000F0BBF80021102000F0B7F84F
:404840000021B02000F0B3F80021C82000F0AFF80021084600F0ABF80021102000F0A7F80021402000F0A3F80021812000F09FF800217F2000F09BF80021A12000F097F831
:404880000021A12000F093F80021A82000F08FF800213F2000F08BF80021A42000F087F80021D32000F083F80021084600F07FF80021D52000F07BF80021F02000F077F896
:4048C0000021D92000F073F80021222000F06FF80021DA2000F06BF80021122000F067F80021DB2000F063F80021202000F05FF800218D2000F05BF80021142000F057F8C5
:404900000021AF2000F053F8FFF734FF002010BD00020240FFB581B01F460E46002513E03146019800F014F8019C08E00A980121405D6D1CADB200F03AF8641CE4B203988F
:404940008442F3D3761CF6B2BE42E9D305B0F0BD10B50446B031C8B2002100F028F820090021103000F023F82007000F01210843002100F01CF810BD70B505460C460020AC
:4049800003F09CFD012002F09DFC2146284603F041FD03F037FD0028FBD10120FEF708F8012002F08FFC012003F088FD70BD70B505460C46002003F081FD002C01D00120B3
:4049C00000E0002002F07EFC284603F093FE012002F078FC012003F071FD70BD10B5044CE068400703D504F08FFE0420206010BDC00F26401FB500216A4651720322D2021F
:404A000000926A46117201210191039002496846FEF7D0FB04B010BD2806002010B5FBF71BFC0446FEF72AF8FDF7A4FAFEF774FA1E20FDF7BDFFFDF70BFFFEF709F8204676
:404A4000FBF70EFC10BD000010B504F039FE024804F00EFE10BD0000DD490000F8B5544C2079254601274C3D0026002802D0012849D10FE002224F490020FFF7FDFB27718A
:404A80000020205601014B480818808905F0FAF86E7138E06078002835D005F0DBF8002831D16879002804D0012810D0022825D029E0002020561F3080B205F0E3F8207840
:404AC000012801D06F711EE0022068711BE000202056010137480818808B05F0D3F86E712178344A0020FFF710FC2078401C20702178304A0120FFF708FC04E0342005F0EF
:404B0000C1F86E71667004F079FC0078002827D004F074FC4078030005F067FA0C23070722222222221022313A2204F067FC40780C214843204940180C3833E0667021789E
:404B40001C4A0020FFF7E1FB2078401E40B22070002800DA27702178164A0120FFF7D5FBF8BD66702178134A0020FFF7CEFB2078401C40B220700128EDDD2670EBE70E4865
:404B8000F03807C8E86429656A6502202071F8BD002020560228FADA002020560C2148430549401807C8E86429656A65F8BD000024010020C8C2000080C1000010B5002142
:404BC000252000F0DBFE10BD10B5012000F0CAFE6420FDF7D9FE00214F2000F0CFFE0121002000F0CBFE01214B2000F0C7FE10BD10B50446FF21082000F0C0FE0620214604
:404C000001432D2000F0BAFEFFF7D8FF10BDF0B5C3B004468068019005680120002622AF009022E0FF22013202A80199FBF775FB6D1C802138460295FCF7D6FC2190224698
:404C400002A9019805F04EF9A06901992246081A2168401802A905F045F90090234642AA01A9284600F029FE761C216960684843B042D7D8009843B0F0BD70B500258A692F
:404C80002C46026009E01368002B03D0AB4201D91D460260FF320132641C0E694B687343A342F0D870BD0000F0B5284A284D8C460146002354796F78FF201E46BC4202D0C5
:404CC0002E706C7008E02C78641CE4B22C70022C02D92E70167156711C4F603F3D78552908D039463F7A54790937BC420AD1EF2D09D028E05179002904D016715671552D40
:404D000000D10020F0BD497801291CD10625A11E06E00E4F603F7F5DFB186D1C9BB2EDB2A942F6DC0949094F6239615C613F0D02E15D29438B4206D1791C487A102C02D1AB
:404D4000CB7A61460B7016715671F0BDF6020020C20000201FB507A11EC903946C460EC469468872C01D08730D21684600F0C6FA1FBD0000EF01FFFFFFFF010004020000FD
:404D8000070000000EB504A007C86B4607C30C21684600F0B3FA0EBDEF01FFFFFFFF010003010005F0B587B00024684604705B4901260F46CA780C37F879019008468078F3
:404DC000130005F012F906041D3C5680A1A8019A002A06D00F46002808D0012000F0AAF833E00520C870801F07B0F0BD69465520FFF75AFF002830D1FE7037E0042034E0AF
:404E0000002805D0FFF7BEFF444884703E7183E069460020FFF748FF0546FF284BD0002D06D03E490420C870032038713B483DE03A490220C870F8E70420C87061E00F4697
:404E4000002804D00120FFF785FFBC7064E069460020FFF729FF002806D0F888401C80B2F8803228CAD857E00320F870BE70FC8052E0002809D0142229A101A8FBF74DFA3D
:404E8000112101A800F03AFA21E069460020FFF70BFF0546FF280ED0002D0AD00C2038716846007878801D480421C1708670C48032E00520F3E71949C888401C80B2C8804B
:404EC0003228B9D828E0002804D000F09BF91348847021E069460020FFF7E6FE0546FF2808D0002DA2D100F025F80C49FC710520C8709BE70949C888401C80B2C8801428FA
:404F00000AD98E70CC8007E00F2038710198012802D1CC70F5E7CC7068B265E7C2000020EF01FFFFFFFF010008040100000064007200000010B502498871FFF759FE10BD61
:404F4000CE000020F0B5384D01262F462B780C3F7A79002485B0002B08D0012B1ED0062B45D02C700020C04305B0F0BD002A03D00120FFF7DFFF27E004A95520FFF794FE1C
:404F8000002808D07889401C80B278813228E9D90620287044E06C702E7041E0002A15D0002905D021A007C86B4607C30C2108E021A12EC96E462EC66946C8721530C873D9
:404FC0001021684600F09AF97C71CBE704A90020FFF76AFEFF28C5D0062129707E717C81002802D00A206871BCE70920FBE7002A02D000F007F9E7E704A90020FFF754FEA3
:40500000FF2807D000280BD1FFF794FF2C700820687105E07889401C80B278811E28A1D97E717C819EE70000CE000020EF01FFFFFFFF0100030D0011EF01FFFFFFFF0100C1
:40504000070C000000010015F0B5664D87B02A7829460C390627087901260024130004F0C4FF070514274E677C9DBB00002803D00120FFF75FFF7EE004A95520FFF714FE97
:40508000002830D16C702E7028E0002802D0FFF779FE70E004A90020FFF706FEFF2822D0002802D00320687118E002202870FAE7002805D06878401CC0B2FFF74BFE5AE001
:4050C00004A90020FFF7F0FDFF280CD003212970002803D0282801D10E20E4E741480C380671048179E03F490C390889401C80B20881322871D92F700E710C816DE00F46A2
:40510000002802D0FFF73EFE4DE004A90020FFF7CBFDFF2861D002285BD12E70042169716878401CC0B26870072852D9297050E00F46002808D02CA007C86B4607C30C21FF
:40514000684600F0DBF82EE004A90020FFF7ACFDFF2842D0052028703BE000280FD0A97824A02DC86E462DC6684601730E3181730F2100F0C3F81B480C3804712DE004A9A5
:405180000020FFF791FDFF2827D0002804D00D2068716C702F70A1E70720F9E70F46002803D000F02FF83C7117E004A90020FFF77BFDFF2807D000280BD1FFF7BBFE2C708E
:4051C0000820687105E03889401C80B238811E2803D93E713C8100E02C70059807B040B2F0BD0000CE000020EF01FFFFFFFF010003050009EF01FFFFFFFF010006060100DE
:40520000000000000EB504A007C86B4607C30C21684600F073F80EBDEF01FFFFFFFF0100033300377FB507A23CCA6E463CC66A4690724018D172143050730E21684600F0A8
:405240005DF87FBDEF01FFFFFFFF0100050E00000000000010B504F02DF9134804F0F2F80120FFF767FE6420FDF78EFB01210320FFF7D8FF6420FDF787FB08210120FFF7BC
:40528000D1FF6420FDF780FBFFF7BCFF6420FDF77BFB0020FFF74EFE04480021C171044801714171084610BDB5520000CE000020F602002070B50F4DE868400718D50E4C94
:4052C0002079642801D30020207104F0E1F80A4A2179603A50542079401C20716079401CC0B26071642801D9642060710420286070BD0000C00F2740F602002010B504F072
:40530000BBF810BD00487047CE00002010B50A494878002806D0012807D0022808D00020487010BD01F0B8FA10BD01F02BFA10BD00F0CCFD10BD0000FC02002010B500F0D7
:40534000C3FB03480121017204F086FF10BD00003C03002010B500F077F800070124002802DAFFF7CFFFC4710248047204F09CFF10BD00003C03002010B504F0A9F804F0D4
:405380002DF904F0ABF903F071F803F05BF9FBF7BDFBFCF7EFFD00F023F910BD10B500F05DF800F087FCFDF753FAFBF7A1FB012000F0D8FAFFF722FA04F07CF8FFF744FB4C
:4053C00004F05AFC01F000FF012000F08DFB10BD38B5164800240146C48040390C7004724472684602F0BCFC1048694620384978C172694609788172694689780173FDF70C
:4054000033FE0B48FDF728FE0A490120FDF710FE094804F037FF094804F05EFFFFF772FF0471FFF76FFFC47138BD00003C03002000530700D18E00003D5300005553000081
:4054400000487047FC020020034A10693C21014011618006000F7047000104400C480D4A016891600C4A416891600C4A816891600B4AC16891600B4A016991600A4A416966
:4054800091600A4A816991600949C0698860704754020020000004400001044000020440000304400004044000050440000604400007044010B5044601208840C2B2002074
:4054C000230004F092FD091806080A0C0E101214180009480CE009480AE0094808E0094806E0094804E0094802E0094800E0094840681040C84010BD00000440000104403D
:405500000002044000030440000404400005044000060440000704400C4881680C4801600C49896841600C49896881600B498968C1600B49896801610A49896841610A4972
:405540008968816109498968C161704700000440540200200001044000020440000304400004044000050440000604400007044010B54B00C91807248C408A40030004F0E1
:4055800034FD091306080A0C0E14161813000C4810E00C480EE00C480CE00C480AE00C498868A0431043886010BD0A4802E00A4800E00A488168A1431143816010BD00005C
:4055C000000004400001044000020440000304400004044000050440000604400007044000B5002204210120FFF7C2FF002205210120FFF7BDFF002206210120FFF7B8FF69
:40560000002207210120FFF7B3FF002211460220FFF7AEFF002201210220FFF7A9FF002203210220FFF7A4FF002204210220FFF79FFF012205210220FFF79AFF00220621D4
:405640000220FFF795FF002207210220FFF790FF002211460320FFF78BFF002201210320FFF786FF002202210320FFF781FF032100220846FFF77CFF002204210320FFF74C
:4056800077FF002205210320FFF772FF002206210320FFF76DFF002207210320FFF768FF002211460420FFF763FF002201210420FFF75EFF002202210420FFF759FF002281
:4056C00003210420FFF754FF042100220846FFF74FFF002205210420FFF74AFF002206210420FFF745FF002207210420FFF740FF002211460520FFF73BFF00220121052014
:40570000FFF736FF002202210520FFF731FF002203210520FFF72CFF002204210520FFF727FF052100220846FFF722FF002206210520FFF71DFF002207210520FFF718FFF1
:40574000002211460620FFF713FF002201210620FFF70EFF002202210620FFF709FF002203210620FFF704FF002204210620FFF7FFFE002205210620FFF7FAFE0621002242
:405780000846FFF7F5FE002207210620FFF7F0FE002211460720FFF7EBFE002201210720FFF7E6FE002202210720FFF7E1FE002204210720FFF7DCFE002205210720FFF7B6
:4057C000D7FE002211460820FFF7D2FE002201210820FFF7CDFE002202210820FFF7C8FE00BD000001238B4010B5DBB2DC438A401A40E4B2030004F0F8FB091906080A0C10
:405800000E10121419000A490CE00A490AE00A4908E00A4906E00A4904E00A4902E00A4900E00A490868204002430A6010BD000000000440000104400002044000030440C7
:4058400000040440000504400006044000070440F0B596460A4601460020059E069D74462060DF01844670063C46400E7F347319B7420DD8B4420BD380300860BB4203D37E
:40588000A34201D8401901E0FF200130106012E0BB420ED3A3420CD880230B601B1A28468030C01A10600968401A291A7046016001E0012084466046F0BD70B50C680028E7
:4058C00002D0FF3401340C601D68AC4201D39C690C60002414605C6884420FD81E69012E0FD90D682002291A9869814207D2761E744321022B1AC9180818106070BD11606A
:4059000070BD0868F9E70246886906E0FF300B680130834201D80020704703689342F5D170470000044A1168FD23C0071940800F0843106070470000000704400248406881
:40594000C007C00F7047000000070440044A1168FE23C0071940C00F084310607047000000070440044A1168C0074906490E000E08431060704700000005044070B50D4686
:40598000044602F059FC782002F081FC02F070FC204602F07CFC02F06BFC284602F077FC02F066FC02F056FC012070BDFEE7000070B51C4E307935464C3D1B4C002804D08B
:4059C00001280AD002281CD111E01848FEF7AEFD832004F057F9012007E004F03BF900280FD18A2004F04EF90220307109E004F031F9002805D12046303007C8E864296561
:405A00006A6503F0FBFC0078002809D003F0F6FC40780A2804D1303407CCE86429656A6570BD00002401002090C00000BCC30000F8B5184E0546371D71783878FFF79EFF91
:405A40003178A87A014338782530C0B2FFF796FF01247178385DFFF791FF281920383178C07F0143385D2530C0B2FFF787FF641CE4B20B2CEDD37178F87AFFF77FFF3178CA
:405A8000E87A0143F87A2530C0B2FFF777FFFFF795F8F8BD4A010020F8B50F46044612280ED2084D2E1D6978305DFFF767FF305D297825303943C0B2FFF760FFFFF77EF8F6
:405AC000F8BD00004A010020024908690007000F0861704700000440024840680007000F704700000000044010B50446FF210A20FFF744FF0620214601432F20FFF73EFF68
:405B0000FFF75CF810BD0000F8B5664C2079274601264C3F0025002804D001280ED002284FD145E06048808904F0ACF802225E490020FEF7A1FB26717D7542E06078002830
:405B40003FD004F087F800283BD1787D002804D0012810D0022825D033E0002020561F3080B204F08FF82078012801D07E7528E00220787525E00020205601014A480818C6
:405B8000808B04F07FF87D752178474A0020FEF7BCFB2078401C20702178434A0120FEF7B4FB0EE0342004F06DF87D75657008E004F050F8002804D13C4807C8F864396548
:405BC0007A6503F01BFC007800282FD003F016FC4078030004F009FA0C3E07172A2A2A2A2A2B2A4C522AFFF72BFC2030C5725D2004F048F82E48FEF799FC684602F0B0F872
:405C0000684645700EE0FFF71BFC2030C6725D2004F038F82648FEF789FC684602F0A0F86846467004F054F902202071F8BD657021781D4A0020FEF768FB2078401E40B27B
:405C40002070002800DA26702178174A0120FEF75CFBF8BD65702178134A0020FEF755FB2078401C40B220700128EDDD2570EBE70E4807C8F86439657A65F8BD207800286D
:405C80000AD0FFF7DDFB2030C6725D2003F0FAFF0748FEF74BFCC7E7FFF7D2FB2030C572F3E700002401002048C30000A8C00000BCC30000044806210170FF2141700121E0
:405CC00081700020704700004A01002001498870704700004A010020FEB53C4D0024AE1FA878F178884203D0F070B4807470B470030004F07AF90769650507256944690098
:405D000033485FE0B088002803D1E8780021FFF7C3FEE9783078814204D00121FFF7BCFEE8783070B088401C80B2B080062806D9AC70E8780C2802D20121FFF7ADFEFEBDC6
:405D4000B088002804D122481838FFF771FE7470B088401C80B2B080502831D81421FAF782FA0029EBD1707801214840707001D0174801E016481838FFF75AFEFEBDB78874
:405D8000002F00D1B4701E213846FAF76CFA7F1CB7800029F2D10C220D496846FAF7BDFAB1786846401801220321FAF7C8FA6846FFF73EFEB078C01CC0B2B0700C28DDD390
:405DC00003480C38FFF734FEAC70FEBD4A0100209CC50000004870474A010020F8B5050AC4B2002003F050FE0120FCF7CDFDE8070121304FC00F39700026002843D00120E4
:405E000003F042FE4B20C000FCF7D2FD002003F03BFEC820FCF7CCFD6D08E807761CC00FF6B2082EE9D3012003F02EFE0120FCF7ABFD002003F028FE0320FCF7A5FDE0071F
:405E4000C00F00254B26F600002828D0012003F01BFE3046FCF7ACFD002003F015FEC820FCF7A6FD6408E0076D1CC00FEDB2082DEAD3012003F008FEFF20F530FCF798FDA2
:405E800000203870F8BD012003F0FEFDC820FCF78FFD002003F0F8FD4B20C000BAE7012003F0F2FDC820FCF783FD002003F0ECFD3046D5E79601002003484178012901D0D9
:405EC00001210170002070477001002010B5FFF7B7FA00214170084610BD000003484178022901D0022101700020704770010020F8B5FD4800240246877890891646401C24
:405F000081B2D0781036012572783B0004F06DF806042AEBE7E6E5A53078012802D0022809D01BE0F04844718471C4710472C4814472857008E0EC48022144718471C4714A
:405F40000472C48144728170FF210A20FFF716FD07212F20FFF712FDFEF730FEE2488481C4707AE0E04F002806D0012870D001F0CDF9002821D021E0B98132296DD9BC8191
:405F8000FD70FF211D20FFF7F9FC07214220FFF7F5FCFF211E20FFF7F1FC06214320FFF7EDFCFF211F20FFF7E9FC07214420FFF7E5FCFEF703FE0320BFE0FD710120FAF73C
:405FC000ADFD002805D00120FAF7BAFDEE2800D93D72F879397A08427ED10A46824339D0FF211D20FFF7CAFC07214220FFF7C6FCFF211E20FFF7C2FC07214320FFF7BEFC10
:40600000FF211F20FFF7BAFC07214420FFF7B6FCFEF7D4FDFF211D20FFF7B0FC07214220FFF7ACFCFF211E20FFF7A8FC07214320FFF7A4FCFF211F20FFF7A0FC072144209E
:40604000FFF79CFCFEF7BAFD7D71FCE0B87013E2BFE002E0084375D0FC81A34970780A79904201D00871B57000F05AFAF8BDFF211D20FFF783FC07214220FFF77FFCFF21F3
:406080001E20FFF77BFC07214320FFF777FCFF211F20FFF773FC07214420FFF76FFCFEF78DFDFF211D20FFF769FC07214220FFF765FCFF211E20FFF761FC07214320FFF746
:4060C0005DFCFF211F20FFF759FC07214420FFF755FCFEF773FD04E045E05BE147E1BAE001E0082040E1804F002806D0012870D0FFF7F2FCC00726D026E0B9813229ACD93D
:40610000BC81FD70FF211D20FFF738FC07214220FFF734FCFF211E20FFF730FC07214320FFF72CFCFF211F20FFF728FC06214420FFF724FCFEF742FD04207070FC813C72D8
:40614000FC718AE78EE0FD710120FAF7E7FC002805D00120FAF7F4FCEE2800D93D72F879397A084236D0FF211D20FFF707FC07214220FFF703FCFF211E20FFF7FFFB072114
:406180004320FFF7FBFBFF211F20FFF7F7FB07214420FFF7F3FBFEF711FDFF211D20FFF7EDFB07214220FFF7E9FBFF211E20FFF7E5FB07214320FFF7E1FBFF211F20FFF751
:4061C000DDFB07214420FFF7D9FBFEF7F7FC03203CE7F8E00A46824300D13BE7FF211D20FFF7CCFB07214220FFF7C8FBFF211E20FFF7C4FB07214320FFF7C0FBFF211F2058
:40620000FFF7BCFB07214420FFF7B8FBFEF7D6FCFF211D20FFF7B2FB07214220FFF7AEFBFF211E20FFF7AAFB07214320FFF7A6FBFF211F20FFF7A2FB07214420FFF79EFB64
:40624000FEF7BCFCBD71787A401CC0B2787202287DD80520FAE6244F00280DD001F04EF8002843D0F889FF21401C80B2F531F881884200D9FBE6F0E6B9813229FBD9BC815D
:40628000FD70FC8198E0FF211D20FFF777FB07214220FFF773FBFF211E20FFF76FFB07214320FFF76BFBFF211F20FFF767FB062114E0FF211D20FFF761FB07214220FFF723
:4062C0005DFBFF211E20FFF759FB06214320FFF755FBFF211F20FFF751FB07214420FFF74DFBFEF76BFCB8E660010020FF211D20FFF744FB07214220FFF740FBFF211E203D
:40630000FFF73CFB07214320FFF738FBFF211F20FFF734FB07214420FFF730FBFEF74EFCFF211D20FFF72AFB07214220FFF726FBFF211E20FFF722FB07214320FFF71EFBE8
:40634000FF211F20FFF71AFB0721442000E0D9E0FFF714FBFEF732FC3078012802D0022802D002E0757000E07070BC7010E0664A90795179084201D0072007E00B46834361
:4063800001D0052002E0884301D0062070709470347062E65C4F002806D0012813D0032A18D0042A1AD01EE0B9811E299BD9BC81FD70FC813C72FC71032A00D163E7042AE6
:4063C00000D176E749E6B9810A298CD9BC810220F87042E6FFF780FBC00701E000F096FF002800D1FD710120FAF798FB002805D00120FAF7A5FBEE2800D93D72F879397A64
:4064000008423ED0FF211D20FFF7B8FA07214220FFF7B4FAFF211E20FFF7B0FA07214320FFF7ACFAFF211F20FFF7A8FA07214420FFF7A4FAFEF7C2FBFF211D20FFF79EFAF8
:4064400007214220FFF79AFAFF211E20FFF796FA07214320FFF792FAFF211F20FFF78EFA07214420FFF78AFAFEF7A8FB3078012805D0022800D1E9E5BC81FC70EDE5BD7085
:40648000FAE70A46824300D1E4E5FF211D20FFF775FA07214220FFF771FAFF211E20FFF76DFA07214320FFF769FAFF211F20FFF765FA07214420FFF761FAFEF77FFBFF21E0
:4064C0001D20FFF75BFA07214220FFF757FAFF211E20FFF753FA07214320FFF74FFAFF211F20FFF74BFA07214420FFF747FAFEF765FB7078032802D0042802D002E0BD7133
:4065000000E07D710420A1E56001002000B500F007F8024900200871012000BD7001002010B50B49002049680A4A0907C90F517014780123A1420AD011701032002903D058
:4065400001200221D17001E00220D370137110BD0000044060010020004870477001002030B50C46054689B00321142002F0C2F9C820FCF71DFA0821084603F03EFE8021B1
:40658000122003F03AFE8021132003F036FE07210D2000F085FE69460D7207A802AB0090012219460C2003F0D3FE694608710879002802D10798102806D00120C043087141
:4065C0000420085609B030BD087A2070487A6070F6E70000F8B5664D28792E4601274C3E0024002806D001281DD002282DD0032872D138E0688800280ED12C70FEF720FF3F
:406600002E3000F0FDFF002806D05A48FDF78EFF2E2003F037FB6F8003F01CFB00285BD16C802F7158E06888002806D15248FDF77DFF3A2003F026FB6F8003F00BFB0028F4
:406640004AD16C800220287146E004224B490020FDF712FE032028714848808903F012FB34702C7038E06878012835D103F0F2FA002831D13078002804D0012810D00228B8
:4066800025D029E0002028561F3080B203F0FAFA2878032801D037701EE0022030701BE000202856010135480818808B03F0EAFA34702978314A0020FDF727FE2878401CC4
:4066C000287029782D4A0120FDF71FFE04E0342003F0D8FA34706C7002F090FE0078002827D002F08BFE4078254F030003F07DFC0C22070707072121210E2130342102F0BB
:406700007DFE40780C214843C0192BE06C7029781A4A0020FDF7F9FD2878401E40B22870002801DA032028702978144A0120FDF7ECFDF8BD6C702978104A0020FDF7E5FDDA
:406740002878401C40B228700328EDDD2C70EBE7FEF776FE4470F8BD002028560C214843C0190C3007C8F06431657265F8BD000024010020A4C3000004C4000098C10000E1
:4067800090C0000070B502F039FE0078012807D102F034FE40780C2802D2022003F072FA3A4DA868002801D0A868804702F026FE00780024012815D1EC80FEF741FE403025
:4067C000C48002F01BFE0470FFF704FB8078002808D102F013FE4678FFF7FCFAC6700320FFF774FA687800280BD1E888401C80B2E8807D21C900884203D9EC80FEF720FEA8
:40680000447002F023FA4079022802D1FEF718FE4470FEF715FE4078012834D01C48FDF785FE1C4919480EC94C38C1640265436503F064FAFFF750FAFCF79AFBFEF700FEF7
:406840004030407A0028F7D0FEF7FAFD4030447203F000FA0028EBD12A2003F013FA03F04DFAFFF739FAFCF783FBFEF7E9FD4030407A0028F7D0FEF7E3FD4030447203F01C
:40688000E9F90028EBD1002070BD00002401002074C3000090C00000F0B5F84E85B0B078052701250024030003F09FFB070510FEFDFCFBFA0F00FDF75DFF1021F048F9F7EB
:4068C00045FD34713220F070B5701FE2F078401CC0B2F07032280DD9E848F4700C3001F0D3FBFAF725FD70700146E44832790C30FDF734FDE14804AB0022E149001D02F0CF
:40690000FDFB002814D06846007C022816D0012849D004285FD0032873D0052874D02D2003F0B0F9B4701021D548F9F70FFD3471FEF7E8FC007901286ED073E0D04903A8D1
:4069400001F0CEF900282CD06846007B89281BD0842802D90021FDF721FCFEF771FD2030007B002803D0707AB17A084310D06846017B8020C14A014300230C32012003F0C6
:406980002DFAB57102203DE0042003F07BF9E4E73572762003F076F9BA48FDF7C7FD062030E0347214E0B64801F066F900280FD0FEF746FD0C22B2492E30F9F7AEFCFEF729
:4069C0003FFD4570B470FEF73BFD2030C477AAE7B571032016E0FEF733FD2030807A012807D0FEF72DFD203085720C20F071B77099E7FEF725FD203084720D20F6E700E0AA
:406A000002E00420B0708EE70720F071B770FEF717FD2030857786E7FEF774FC0471032003F030F9FEF76EFC007905280AD0FEF769FC00790C2817D0FEF764FC007903286B
:406A400012D017E0FEF75EFC0471FEF75BFC807880210843894AC1B200230C32022003F0BDF9B571022004E0FEF74CFC0471B5710320B0706846FBF7F9FE002832D10320AB
:406A800003F000F9FEF7DCFC4030C480694603A801F08CF8002826D0FEF7D2FC203004E02FE1B1E0A7E064E020E0007B002803D0307AB17A08430CD06846017B80206F4A24
:406AC00001436B460C32032003F088F9B571022007E07572782003F0D5F86B48FDF726FD0620B07012E1B5710320FAE7B07900282BD0FEF7A5FC4030C48003F0ABF80028DD
:406B000031D1FEF79DFC2030C07F002803D00320F071B77027E0B471FEF792FC2030807A002802D1592003F0ADF85848FDF7FEFC7471FEF785FC40304570B47274723472CB
:406B4000FEF77EFC203084770DE003F083F8002809D1FEF775FC2030807A002802D18B2003F090F8B470FEF7CDFB007905283BD0CCE003F06FF8002831D1FEF761FC2030C9
:406B8000C07F002803D00320F071B77027E0B07900281AD0FEF754FC4030C480B471FEF74FFC2030807A002802D1292003F06AF83748FDF7BBFC0420FFF788F87079401C64
:406BC0007071B4727472347209E0FEF739FC2030807A002802D1302003F054F8B470FEF791FB0079012805D1032003F04BF8FEF789FB04718AE001F0BDF8002873D1FEF746
:406C00001FFC4030C48081E003F024F800287DD1F079030003F0E9F90F72090E10171C1E20252C4E535D626972007F2003F02AF8184805E07E2018E0812003F023F816481D
:406C4000FDF774FC5BE0822003F01CF81348F7E71348F5E71348F3E7802003F013F81248EEE71248FDF762FC042003F00BF846E00F48FDF75BFC9020F7E7000030010020ED
:406C800070040020D0C40000DCC4000024C5000068C3000030C5000048C5000078C50000B8C40000ACC400003CC50000C4C400006CC500005648FDF739FC8F20D5E7554844
:406CC000FDF734FC002202215348FDF75AFC5E20CBE75248FDF72AFC8620C6E75048FDF725FC8520C1E710E010E05A2002F0CAFF002202214B48FDF744FC00E0B470F4718B
:406D000004E002F0A7FF002800D1B470FEF798FB40304078002812D0FEF792FB4030447070780A280BD202F095FF002807D15A2002F0A8FF002202213A48FDF722FC707908
:406D4000052807D37471FEF77BFB403005700B20F071B770FEF726F801F078FF00780C2805D001F073FF00781C280AD012E001F06DFF0470FEF764FB4030C480FFF79CF8DA
:406D800008E001F063FF0470FEF75AFB4030C480FFF7A4F801F05AFF00782C2811D101F055FF0470FEF74CFB4030C4800320F071B770FEF745FB2030C577FEF741FB4030E6
:406DC000C48001F043FF807800281ED001F03EFF8470FEF735FB4030C48001F037FFC078012805D001F032FFC078022806D00CE0FEF726FB403085700A2004E0FEF720FBD7
:406E0000403084700920F071B770002005B0F0BD60C5000040C400004CC4000034C4000054C5000010C40000F0B5C14C8DB0207925460026BF4F4C3D030003F0D6F806041F
:406E40001721242C9CA1BC48008902F01BFFBA48FDF76CFB01202071B548C8214C38C685B448F9F773FA2E772E8689E002F0F2FE002804D1342002F005FF022020717FE09A
:406E800002F0E8FE7CE06088401C80B26080642876D9668073E0687F002871D06E77287F01286DD9A24AAB7F4C3A107F3021515E401E002B09D0491E09B22986002902DA86
:406EC000288638182DE0785C06E0491C09B22986814225DD2E863878102201019748091897480818694601F04DF83020285E0123385C00226946FDF79DFA3020285E1022CB
:406F00003818407801018D4809188D480818694601F038F83020285E38184078002325E078182038C07F102201018448091884480818694601F026F83020285E002338184B
:406F40002038C07F1A466946FDF774FA3020285E1022385C01017948091879480818694601F010F83020285E0123385C02226946FDF760FA04E002F06DFE002800D1267180
:406F800002F03CFA0078002822D002F037FA4078030003F02AF80C07070707070707070707474D1D2079012814D02079022811D0207904280CD102F021FA407800282ED04A
:406FC00002F01CFA4078082802D10120A87768770DB0F0BD02F012FA42785AA104A802F0C1FF534C1E3C2078000609D402F006FA4078002380302070022104AA38200BE09F
:4070000060780006E4D402F0F9F9407800238030607004AA02214020FDF7D3FBD8E7AE770120D4E7484807C8E86429656A65CFE73F481E380178002971D0407800286ED02C
:407040003B4900204C390877C8213A48F9F77EF93B4E002539482901081880191022694600F090FF32480A221E3841780078803850438038081880210843694649788842AE
:4070800005D12B494C39087F3D54401C08776D1CEDB2C82DDED326494C39087F012824D037D93878254D0001401980191022694600F068FF3878012300226946FDF7BAF9FF
:4070C00078781022000140198019694600F05AFF7878002302226946FDF7ACF904202071134900204C39088672E7FDF743FB387810220101114808188019694600F042FF5F
:407100003878012300226946FDF794F9042020715EE70E48FDF70AFA0320F8E7FFE72D2002F0B0FD0A48FDF701FA0520EFE7000024010020A80300208CC3000000B00100C1
:40714000BC04000025640000B4C00000E8C4000098C3000010B50321142003F04EF810BD10B5142000F03EF8800703D10321142001F0C0FB10BD30B587B06C4620716171AC
:40718000002001A9145C0D18401CC0B2AC700628F8D300201A5C0C18401CC0B222720628F8D306A800900B460C220E2003F084FA040004D1082000F015F8000701D401241D
:4071C000E443204607B030BD10B501F02DFA0448016809010909016000F018F810BD00000004024010B58006440E0020803401F075FA204601F072FC002001F06FFC0446E0
:40720000012001F06BFA204610BD000010B51B4C0020FAF725F90120FAF722F9641E2404240C04D00120FFF7DDFF2028F6D10F21012000F035F83D21112000F031F81E2117
